{
  "contractName": "MyApp",
  "abi": [
    {
      "inputs": [],
      "stateMutability": "nonpayable",
      "type": "constructor"
    },
    {
      "anonymous": false,
      "inputs": [
        {
          "indexed": false,
          "internalType": "uint256",
          "name": "id",
          "type": "uint256"
        },
        {
          "indexed": false,
          "internalType": "address",
          "name": "newOwner",
          "type": "address"
        }
      ],
      "name": "OwnershipUpdated",
      "type": "event"
    },
    {
      "anonymous": false,
      "inputs": [
        {
          "indexed": false,
          "internalType": "string",
          "name": "name",
          "type": "string"
        },
        {
          "indexed": false,
          "internalType": "address",
          "name": "_address",
          "type": "address"
        },
        {
          "indexed": false,
          "internalType": "string",
          "name": "role",
          "type": "string"
        }
      ],
      "name": "PersonCreated",
      "type": "event"
    },
    {
      "anonymous": false,
      "inputs": [
        {
          "indexed": false,
          "internalType": "uint256",
          "name": "id",
          "type": "uint256"
        },
        {
          "indexed": false,
          "internalType": "address",
          "name": "manufacturer",
          "type": "address"
        }
      ],
      "name": "ProductCreated",
      "type": "event"
    },
    {
      "inputs": [],
      "name": "owner",
      "outputs": [
        {
          "internalType": "address",
          "name": "",
          "type": "address"
        }
      ],
      "stateMutability": "view",
      "type": "function",
      "constant": true
    },
    {
      "inputs": [
        {
          "internalType": "address",
          "name": "",
          "type": "address"
        }
      ],
      "name": "persons",
      "outputs": [
        {
          "internalType": "bool",
          "name": "exists",
          "type": "bool"
        },
        {
          "internalType": "string",
          "name": "name",
          "type": "string"
        },
        {
          "internalType": "string",
          "name": "role",
          "type": "string"
        },
        {
          "internalType": "address",
          "name": "_address",
          "type": "address"
        }
      ],
      "stateMutability": "view",
      "type": "function",
      "constant": true
    },
    {
      "inputs": [],
      "name": "productId",
      "outputs": [
        {
          "internalType": "uint256",
          "name": "",
          "type": "uint256"
        }
      ],
      "stateMutability": "view",
      "type": "function",
      "constant": true
    },
    {
      "inputs": [
        {
          "internalType": "string",
          "name": "_name",
          "type": "string"
        },
        {
          "internalType": "address",
          "name": "_address",
          "type": "address"
        },
        {
          "internalType": "string",
          "name": "_role",
          "type": "string"
        }
      ],
      "name": "createPerson",
      "outputs": [],
      "stateMutability": "nonpayable",
      "type": "function"
    },
    {
      "inputs": [
        {
          "internalType": "string",
          "name": "_name",
          "type": "string"
        },
        {
          "internalType": "string",
          "name": "_model",
          "type": "string"
        },
        {
          "internalType": "string",
          "name": "_price",
          "type": "string"
        }
      ],
      "name": "createProduct",
      "outputs": [],
      "stateMutability": "nonpayable",
      "type": "function"
    },
    {
      "inputs": [
        {
          "internalType": "uint256",
          "name": "_id",
          "type": "uint256"
        }
      ],
      "name": "getProduct",
      "outputs": [
        {
          "components": [
            {
              "internalType": "bool",
              "name": "exists",
              "type": "bool"
            },
            {
              "internalType": "uint256",
              "name": "id",
              "type": "uint256"
            },
            {
              "internalType": "string",
              "name": "name",
              "type": "string"
            },
            {
              "internalType": "string",
              "name": "model",
              "type": "string"
            },
            {
              "internalType": "string",
              "name": "price",
              "type": "string"
            },
            {
              "internalType": "address",
              "name": "manufacturer",
              "type": "address"
            },
            {
              "internalType": "address",
              "name": "curOwner",
              "type": "address"
            },
            {
              "internalType": "address[]",
              "name": "owners",
              "type": "address[]"
            }
          ],
          "internalType": "struct MyApp.Product",
          "name": "",
          "type": "tuple"
        }
      ],
      "stateMutability": "view",
      "type": "function",
      "constant": true
    },
    {
      "inputs": [
        {
          "internalType": "address",
          "name": "_address",
          "type": "address"
        }
      ],
      "name": "getUserRole",
      "outputs": [
        {
          "internalType": "string",
          "name": "",
          "type": "string"
        }
      ],
      "stateMutability": "view",
      "type": "function",
      "constant": true
    },
    {
      "inputs": [
        {
          "internalType": "uint256",
          "name": "_id",
          "type": "uint256"
        }
      ],
      "name": "getAllRoles",
      "outputs": [
        {
          "internalType": "string[]",
          "name": "",
          "type": "string[]"
        }
      ],
      "stateMutability": "view",
      "type": "function",
      "constant": true
    },
    {
      "inputs": [],
      "name": "getProductsOwned",
      "outputs": [
        {
          "components": [
            {
              "internalType": "bool",
              "name": "exists",
              "type": "bool"
            },
            {
              "internalType": "uint256",
              "name": "id",
              "type": "uint256"
            },
            {
              "internalType": "string",
              "name": "name",
              "type": "string"
            },
            {
              "internalType": "string",
              "name": "model",
              "type": "string"
            },
            {
              "internalType": "string",
              "name": "price",
              "type": "string"
            },
            {
              "internalType": "address",
              "name": "manufacturer",
              "type": "address"
            },
            {
              "internalType": "address",
              "name": "curOwner",
              "type": "address"
            },
            {
              "internalType": "address[]",
              "name": "owners",
              "type": "address[]"
            }
          ],
          "internalType": "struct MyApp.Product[]",
          "name": "",
          "type": "tuple[]"
        }
      ],
      "stateMutability": "view",
      "type": "function",
      "constant": true
    },
    {
      "inputs": [
        {
          "internalType": "uint256",
          "name": "_id",
          "type": "uint256"
        },
        {
          "internalType": "address",
          "name": "_newOwner",
          "type": "address"
        }
      ],
      "name": "updateOwnership",
      "outputs": [],
      "stateMutability": "nonpayable",
      "type": "function"
    }
  ],
  "bytecode": "0x608060405260006001553480156200001657600080fd5b50600080546001600160a01b031916339081178255815260026020908152604091829020805460ff191660019081178255835180850190945260058085526420b236b4b760d91b949093019384529092620000759291840191620000d2565b506040805180820190915260058082526420b236b4b760d91b6020909201918252620000a6916002840191620000d2565b50600054600390910180546001600160a01b0319166001600160a01b03909216919091179055620001b5565b828054620000e09062000178565b90600052602060002090601f0160209004810192826200010457600085556200014f565b82601f106200011f57805160ff19168380011785556200014f565b828001600101855582156200014f579182015b828111156200014f57825182559160200191906001019062000132565b506200015d92915062000161565b5090565b5b808211156200015d576000815560010162000162565b600181811c908216806200018d57607f821691505b60208210811415620001af57634e487b7160e01b600052602260045260246000fd5b50919050565b6115de80620001c56000396000f3fe608060405234801561001057600080fd5b506004361061009e5760003560e01c8063b9db15b411610066578063b9db15b41461014f578063c4cf5ff61461016f578063c5ce391114610184578063cc0266f71461019b578063d768468b146101ae57600080fd5b806327820851146100a35780634398d751146100cc5780634f752b33146100e15780638ada2cf6146101015780638da5cb5b14610124575b600080fd5b6100b66100b136600461113b565b6101c1565b6040516100c391906114ab565b60405180910390f35b6100df6100da36600461115c565b610271565b005b6100f46100ef366004611225565b6103fd565b6040516100c391906113af565b61011461010f36600461113b565b6105f0565b6040516100c39493929190611464565b600054610137906001600160a01b031681565b6040516001600160a01b0390911681526020016100c3565b61016261015d366004611225565b610736565b6040516100c391906114fc565b6101776109bd565b6040516100c39190611410565b61018d60015481565b6040519081526020016100c3565b6100df6101a936600461123d565b610d61565b6100df6101bc3660046111cd565b610e3d565b6001600160a01b0381166000908152600260208190526040909120018054606091906101ec90611526565b80601f016020809104026020016040519081016040528092919081815260200182805461021890611526565b80156102655780601f1061023a57610100808354040283529160200191610265565b820191906000526020600020905b81548152906001019060200180831161024857829003601f168201915b50505050509050919050565b6000546001600160a01b031633146102eb5760405162461bcd60e51b815260206004820152603260248201527f4f6e6c792041646d696e20697320617574686f726973656420746f206372656160448201527174652061206d616e7566616374757265722160701b60648201526084015b60405180910390fd5b6001600160a01b03821660009081526002602052604090205460ff161561034a5760405162461bcd60e51b81526020600482015260136024820152725573657220616c72656164792065786973747360681b60448201526064016102e2565b6001600160a01b0382166000908152600260209081526040909120805460ff19166001908117825585519192610387929184019190870190610fa6565b50815161039d9060028301906020850190610fa6565b506003810180546001600160a01b0319166001600160a01b0385161790556040517f3d0bc44597373998a93ae96170a0d02b4cd5b39620a0d07c3262e1296e481304906103ef908690869086906114be565b60405180910390a150505050565b600081815260036020908152604080832060070180548251818502810185019093528083526060949383018282801561045f57602002820191906000526020600020905b81546001600160a01b03168152600190910190602001808311610441575b505050505090506000815167ffffffffffffffff81111561049057634e487b7160e01b600052604160045260246000fd5b6040519080825280602002602001820160405280156104c357816020015b60608152602001906001900390816104ae5790505b50905060005b82518110156105e857600260008483815181106104f657634e487b7160e01b600052603260045260246000fd5b60200260200101516001600160a01b03166001600160a01b03168152602001908152602001600020600201805461052c90611526565b80601f016020809104026020016040519081016040528092919081815260200182805461055890611526565b80156105a55780601f1061057a576101008083540402835291602001916105a5565b820191906000526020600020905b81548152906001019060200180831161058857829003601f168201915b50505050508282815181106105ca57634e487b7160e01b600052603260045260246000fd5b602002602001018190525080806105e090611561565b9150506104c9565b509392505050565b6002602052600090815260409020805460018201805460ff909216929161061690611526565b80601f016020809104026020016040519081016040528092919081815260200182805461064290611526565b801561068f5780601f106106645761010080835404028352916020019161068f565b820191906000526020600020905b81548152906001019060200180831161067257829003601f168201915b5050505050908060020180546106a490611526565b80601f01602080910402602001604051908101604052809291908181526020018280546106d090611526565b801561071d5780601f106106f25761010080835404028352916020019161071d565b820191906000526020600020905b81548152906001019060200180831161070057829003601f168201915b505050600390930154919250506001600160a01b031684565b61073e61102a565b600082815260036020908152604091829020825161010081018452815460ff1615158152600182015492810192909252600281018054929391929184019161078590611526565b80601f01602080910402602001604051908101604052809291908181526020018280546107b190611526565b80156107fe5780601f106107d3576101008083540402835291602001916107fe565b820191906000526020600020905b8154815290600101906020018083116107e157829003601f168201915b5050505050815260200160038201805461081790611526565b80601f016020809104026020016040519081016040528092919081815260200182805461084390611526565b80156108905780601f1061086557610100808354040283529160200191610890565b820191906000526020600020905b81548152906001019060200180831161087357829003601f168201915b505050505081526020016004820180546108a990611526565b80601f01602080910402602001604051908101604052809291908181526020018280546108d590611526565b80156109225780601f106108f757610100808354040283529160200191610922565b820191906000526020600020905b81548152906001019060200180831161090557829003601f168201915b505050918352505060058201546001600160a01b03908116602080840191909152600684015490911660408084019190915260078401805482518185028101850190935280835260609094019391929091908301828280156109ad57602002820191906000526020600020905b81546001600160a01b0316815260019091019060200180831161098f575b5050505050815250509050919050565b60606000805b600154811015610a0f576000818152600360205260409020600601546001600160a01b03163314156109fd57816109f981611561565b9250505b80610a0781611561565b9150506109c3565b5060008167ffffffffffffffff811115610a3957634e487b7160e01b600052604160045260246000fd5b604051908082528060200260200182016040528015610a7257816020015b610a5f61102a565b815260200190600190039081610a575790505b50905060005b600154811015610d5a576000818152600360205260409020600601546001600160a01b0316331415610d4857600081815260036020908152604091829020825161010081018452815460ff16151581526001820154928101929092526002810180549293919291840191610aeb90611526565b80601f0160208091040260200160405190810160405280929190818152602001828054610b1790611526565b8015610b645780601f10610b3957610100808354040283529160200191610b64565b820191906000526020600020905b815481529060010190602001808311610b4757829003601f168201915b50505050508152602001600382018054610b7d90611526565b80601f0160208091040260200160405190810160405280929190818152602001828054610ba990611526565b8015610bf65780601f10610bcb57610100808354040283529160200191610bf6565b820191906000526020600020905b815481529060010190602001808311610bd957829003601f168201915b50505050508152602001600482018054610c0f90611526565b80601f0160208091040260200160405190810160405280929190818152602001828054610c3b90611526565b8015610c885780601f10610c5d57610100808354040283529160200191610c88565b820191906000526020600020905b815481529060010190602001808311610c6b57829003601f168201915b505050918352505060058201546001600160a01b0390811660208084019190915260068401549091166040808401919091526007840180548251818502810185019093528083526060909401939192909190830182828015610d1357602002820191906000526020600020905b81546001600160a01b03168152600190910190602001808311610cf5575b505050505081525050828281518110610d3c57634e487b7160e01b600052603260045260246000fd5b60200260200101819052505b80610d5281611561565b915050610a78565b5092915050565b600082815260036020526040902060068101546001600160a01b03163314610dbc5760405162461bcd60e51b815260206004820152600e60248201526d139bdd08185d5d1a1bdc9a5e995960921b60448201526064016102e2565b6006810180546001600160a01b0384166001600160a01b031991821681179092556007830180546001810182556000918252602091829020018054909216831790915560408051868152918201929092527f17f6791f79c251dfe73501956852b1099624d6a4c5ce9744ad98825c5b8dd91a910160405180910390a1505050565b3360009081526002602052604090205460ff161515600114610ea15760405162461bcd60e51b815260206004820152601b60248201527f596f7520617265206e6f742061204d616e75666163747572657221000000000060448201526064016102e2565b600180546000908152600360209081526040909120805460ff1916831781558254928101929092558451610edd91600284019190870190610fa6565b508251610ef39060038301906020860190610fa6565b508151610f099060048301906020850190610fa6565b50600581018054336001600160a01b0319918216811790925560068301805482168317905560078301805460018181018355600092835260208320909101805490931690931790915581549190610f5f83611561565b91905055507fe8bb4e90e950f7b76a8c4e472b3b5e01d41c478f9eeaea36b4ba991f51133f9160018054610f93919061150f565b60408051918252336020830152016103ef565b828054610fb290611526565b90600052602060002090601f016020900481019282610fd4576000855561101a565b82601f10610fed57805160ff191683800117855561101a565b8280016001018555821561101a579182015b8281111561101a578251825591602001919060010190610fff565b50611026929150611083565b5090565b6040518061010001604052806000151581526020016000815260200160608152602001606081526020016060815260200160006001600160a01b0316815260200160006001600160a01b03168152602001606081525090565b5b808211156110265760008155600101611084565b80356001600160a01b03811681146110af57600080fd5b919050565b600082601f8301126110c4578081fd5b813567ffffffffffffffff808211156110df576110df611592565b604051601f8301601f19908116603f0116810190828211818310171561110757611107611592565b8160405283815286602085880101111561111f578485fd5b8360208701602083013792830160200193909352509392505050565b60006020828403121561114c578081fd5b61115582611098565b9392505050565b600080600060608486031215611170578182fd5b833567ffffffffffffffff80821115611187578384fd5b611193878388016110b4565b94506111a160208701611098565b935060408601359150808211156111b6578283fd5b506111c3868287016110b4565b9150509250925092565b6000806000606084860312156111e1578283fd5b833567ffffffffffffffff808211156111f8578485fd5b611204878388016110b4565b94506020860135915080821115611219578384fd5b6111a1878388016110b4565b600060208284031215611236578081fd5b5035919050565b6000806040838503121561124f578182fd5b8235915061125f60208401611098565b90509250929050565b6000815180845260208085019450808401835b838110156112a05781516001600160a01b03168752958201959082019060010161127b565b509495945050505050565b60008151808452815b818110156112d0576020818501810151868301820152016112b4565b818111156112e15782602083870101525b50601f01601f19169290920160200192915050565b8051151582526000610100602083015160208501526040830151816040860152611322828601826112ab565b9150506060830151848203606086015261133c82826112ab565b9150506080830151848203608086015261135682826112ab565b91505060a083015161137360a08601826001600160a01b03169052565b5060c083015161138e60c08601826001600160a01b03169052565b5060e083015184820360e08601526113a68282611268565b95945050505050565b6000602080830181845280855180835260408601915060408160051b8701019250838701855b8281101561140357603f198886030184526113f18583516112ab565b945092850192908501906001016113d5565b5092979650505050505050565b6000602080830181845280855180835260408601915060408160051b8701019250838701855b8281101561140357603f198886030184526114528583516112f6565b94509285019290850190600101611436565b841515815260806020820152600061147f60808301866112ab565b828103604084015261149181866112ab565b91505060018060a01b038316606083015295945050505050565b60208152600061115560208301846112ab565b6060815260006114d160608301866112ab565b6001600160a01b038516602084015282810360408401526114f281856112ab565b9695505050505050565b60208152600061115560208301846112f6565b6000828210156115215761152161157c565b500390565b600181811c9082168061153a57607f821691505b6020821081141561155b57634e487b7160e01b600052602260045260246000fd5b50919050565b60006000198214156115755761157561157c565b5060010190565b634e487b7160e01b600052601160045260246000fd5b634e487b7160e01b600052604160045260246000fdfea2646970667358221220444492627ce4c4fb88f18671fa9a18b0141a490a5ae8457d0aea2eb08bc493fb64736f6c63430008040033",
  "immutableReferences": {},
  "source": "//SPDX-License-Identifier: MIT\r\n\r\n\r\npragma solidity >=0.8.0 <0.9.0;\r\n\r\ncontract MyApp {\r\n\r\n\t/*\r\n\t\tholds the address of the owner of the contract\r\n\t\towner -> the address which deploys this smart contract on the network.\r\n\t*/\r\n\taddress public owner;\r\n\r\n\t/*\r\n\t\tproductId is used to provide a unique ID to every product that is added.\r\n\t\tIt increments every time a new product is created.\r\n\t*/\r\n\tuint public productId = 0;\r\n\r\n\t// define all custom structs\r\n\r\n\tstruct Person {\r\n\t\tbool exists;\r\n\t\tstring name;\r\n\t\tstring role;\r\n\t\taddress _address;\r\n\t}\r\n\r\n\tstruct Product {\r\n\t\tbool exists;\r\n\t\tuint id;\r\n\t\tstring name;\r\n\t\tstring model;\r\n\t\tstring price;\r\n\t\taddress manufacturer;\r\n\t\taddress curOwner;\r\n\t\taddress[] owners;\r\n\t}\r\n\r\n\t\r\n\tmapping(address => Person) public persons;\r\n\tmapping(uint => Product) products;\r\n\r\n\r\n\t\r\n\tevent PersonCreated(string name, address _address, string role);\r\n\tevent ProductCreated(uint id, address manufacturer);\r\n\tevent OwnershipUpdated(uint id, address newOwner);\r\n\r\n\r\n\t\r\n\tconstructor() {\r\n\t\towner = msg.sender;\r\n\t\tPerson storage m = persons[owner];\r\n\t\tm.exists = true;\r\n\t\tm.name = \"Admin\";\r\n\t\tm.role = \"Admin\";\r\n\t\tm._address = owner;\r\n\t}\r\n\r\n\r\n\t\r\n\tfunction createPerson(string memory _name, address _address, string memory _role) public {\r\n\t\trequire(msg.sender == owner, \"Only Admin is authorised to create a manufacturer!\");\r\n\t\trequire(persons[_address].exists == false, \"User already exists\");\r\n\r\n\t\tPerson storage m = persons[_address];\r\n\t\tm.exists = true;\r\n\t\tm.name = _name;\r\n\t\tm.role = _role;\r\n\t\tm._address = _address;\r\n\t\temit PersonCreated(_name, _address, _role);\r\n\t}\r\n\r\n\r\n\t\r\n\tfunction createProduct(string memory _name, string memory _model, string memory _price) public {\r\n\t\trequire(persons[msg.sender].exists == true, \"You are not a Manufacturer!\");\r\n\r\n\t\tProduct storage p = products[productId];\r\n\t\tp.exists = true;\r\n\t\tp.id = productId;\r\n\t\tp.name = _name;\r\n\t\tp.model = _model;\r\n\t\tp.price = _price;\r\n\t\tp.manufacturer = msg.sender;\r\n\t\tp.curOwner = msg.sender;\r\n\t\t// push cur owner(manufacturer) to owners array\r\n\t\tp.owners.push(msg.sender);\r\n\r\n\t\tproductId++;\r\n\t\temit ProductCreated(productId-1, msg.sender);\r\n\t}\r\n\r\n\r\n\t\r\n\tfunction getProduct(uint _id) public view returns(Product memory) {\r\n\t\treturn products[_id];\r\n\t}\r\n\r\n\tfunction getUserRole(address _address) public view returns(string memory){\r\n\t\treturn persons[_address].role;\r\n\t}\r\n\r\n\tfunction getAllRoles(uint _id) public view returns(string[] memory){\r\n\r\n\t\taddress[] memory allAddress = products[_id].owners;\r\n\t\tstring[] memory allRoles = new string[](allAddress.length);\r\n\r\n\t\tfor(uint i=0; i<allAddress.length; i++){\r\n\t\t\tallRoles[i] = persons[allAddress[i]].role;\r\n\t\t}\r\n\t\treturn allRoles;\r\n\t}\r\n\r\n\tfunction getProductsOwned() public view returns(Product[] memory){\r\n\r\n\t\tuint cnt = 0;\r\n\r\n\t\tfor(uint i=0; i<productId; i++){\r\n\t\t\tif(products[i].curOwner == msg.sender){\r\n\t\t\t\tcnt++;\r\n\t\t\t}\r\n\t\t}\r\n\r\n\t\tProduct[] memory ownedProducts = new Product[](cnt);\r\n\r\n\t\tfor(uint i=0; i<productId; i++){\r\n\t\t\tif(products[i].curOwner == msg.sender){\r\n\t\t\t\townedProducts[i] = products[i];\r\n\t\t\t}\r\n\t\t}\r\n\t\treturn ownedProducts;\r\n\t}\r\n\r\n\t\r\n\tfunction updateOwnership(uint _id, address _newOwner) public {\r\n\t\tProduct storage p = products[_id];\r\n\t\trequire(p.curOwner == msg.sender, \"Not authorized\");\r\n\t\t\r\n\t\tp.curOwner = _newOwner;\r\n\t\tp.owners.push(_newOwner);\r\n\r\n\t\temit OwnershipUpdated(_id, _newOwner);\r\n\t}\r\n\r\n}\r\n",
  "sourcePath": "D:\\Final year Project\\contracts\\MyApp.sol",
  "compiler": {
    "name": "solc",
    "version": "0.8.4+commit.c7e474f2.Emscripten.clang"
  },
  "schemaVersion": "3.4.13",
  "updatedAt": "2023-05-11T11:56:49.931Z",
  "networkType": "ethereum",
  "devdoc": {
    "kind": "dev",
    "methods": {},
    "version": 1
  },
  "userdoc": {
    "kind": "user",
    "methods": {},
    "version": 1
  }
}